{
  "abi": [
    {
      "inputs": [],
      "stateMutability": "nonpayable",
      "type": "constructor"
    },
    {
      "inputs": [],
      "name": "HandleContainsInvalidCharacters",
      "type": "error"
    },
    {
      "inputs": [],
      "name": "HandleFirstCharInvalid",
      "type": "error"
    },
    {
      "inputs": [],
      "name": "HandleLengthInvalid",
      "type": "error"
    },
    {
      "anonymous": false,
      "inputs": [
        {
          "indexed": false,
          "internalType": "address",
          "name": "previousAdmin",
          "type": "address"
        },
        {
          "indexed": false,
          "internalType": "address",
          "name": "newAdmin",
          "type": "address"
        }
      ],
      "name": "AdminChanged",
      "type": "event"
    },
    {
      "anonymous": false,
      "inputs": [
        {
          "indexed": true,
          "internalType": "address",
          "name": "owner",
          "type": "address"
        },
        {
          "indexed": true,
          "internalType": "address",
          "name": "approved",
          "type": "address"
        },
        {
          "indexed": true,
          "internalType": "uint256",
          "name": "tokenId",
          "type": "uint256"
        }
      ],
      "name": "Approval",
      "type": "event"
    },
    {
      "anonymous": false,
      "inputs": [
        {
          "indexed": true,
          "internalType": "address",
          "name": "owner",
          "type": "address"
        },
        {
          "indexed": true,
          "internalType": "address",
          "name": "operator",
          "type": "address"
        },
        {
          "indexed": false,
          "internalType": "bool",
          "name": "approved",
          "type": "bool"
        }
      ],
      "name": "ApprovalForAll",
      "type": "event"
    },
    {
      "anonymous": false,
      "inputs": [
        {
          "indexed": true,
          "internalType": "address",
          "name": "beacon",
          "type": "address"
        }
      ],
      "name": "BeaconUpgraded",
      "type": "event"
    },
    {
      "anonymous": false,
      "inputs": [
        {
          "indexed": true,
          "internalType": "uint256",
          "name": "profileId",
          "type": "uint256"
        },
        {
          "indexed": false,
          "internalType": "string",
          "name": "newCid",
          "type": "string"
        }
      ],
      "name": "CidUpdated",
      "type": "event"
    },
    {
      "anonymous": false,
      "inputs": [
        {
          "indexed": false,
          "internalType": "uint256",
          "name": "profileId",
          "type": "uint256"
        },
        {
          "indexed": false,
          "internalType": "address",
          "name": "delegate",
          "type": "address"
        }
      ],
      "name": "DelegateAdded",
      "type": "event"
    },
    {
      "anonymous": false,
      "inputs": [
        {
          "indexed": false,
          "internalType": "uint256",
          "name": "profileId",
          "type": "uint256"
        },
        {
          "indexed": false,
          "internalType": "address",
          "name": "delegate",
          "type": "address"
        }
      ],
      "name": "DelegateRemoved",
      "type": "event"
    },
    {
      "anonymous": false,
      "inputs": [
        {
          "indexed": false,
          "internalType": "uint8",
          "name": "version",
          "type": "uint8"
        }
      ],
      "name": "Initialized",
      "type": "event"
    },
    {
      "anonymous": false,
      "inputs": [
        {
          "indexed": true,
          "internalType": "address",
          "name": "user",
          "type": "address"
        },
        {
          "indexed": false,
          "internalType": "uint256",
          "name": "profileId",
          "type": "uint256"
        },
        {
          "indexed": false,
          "internalType": "string",
          "name": "handle",
          "type": "string"
        },
        {
          "indexed": false,
          "internalType": "uint256",
          "name": "platformId",
          "type": "uint256"
        },
        {
          "indexed": false,
          "internalType": "uint256",
          "name": "fee",
          "type": "uint256"
        }
      ],
      "name": "Mint",
      "type": "event"
    },
    {
      "anonymous": false,
      "inputs": [
        {
          "indexed": false,
          "internalType": "uint256",
          "name": "mintFee",
          "type": "uint256"
        }
      ],
      "name": "MintFeeUpdated",
      "type": "event"
    },
    {
      "anonymous": false,
      "inputs": [
        {
          "indexed": false,
          "internalType": "enum TalentLayerIDV2.MintStatus",
          "name": "mintStatus",
          "type": "uint8"
        }
      ],
      "name": "MintStatusUpdated",
      "type": "event"
    },
    {
      "anonymous": false,
      "inputs": [
        {
          "indexed": true,
          "internalType": "address",
          "name": "previousOwner",
          "type": "address"
        },
        {
          "indexed": true,
          "internalType": "address",
          "name": "newOwner",
          "type": "address"
        }
      ],
      "name": "OwnershipTransferred",
      "type": "event"
    },
    {
      "anonymous": false,
      "inputs": [
        {
          "indexed": false,
          "internalType": "uint256",
          "name": "price",
          "type": "uint256"
        }
      ],
      "name": "ShortHandlesMaxPriceUpdated",
      "type": "event"
    },
    {
      "anonymous": false,
      "inputs": [
        {
          "indexed": true,
          "internalType": "address",
          "name": "from",
          "type": "address"
        },
        {
          "indexed": true,
          "internalType": "address",
          "name": "to",
          "type": "address"
        },
        {
          "indexed": true,
          "internalType": "uint256",
          "name": "tokenId",
          "type": "uint256"
        }
      ],
      "name": "Transfer",
      "type": "event"
    },
    {
      "anonymous": false,
      "inputs": [
        {
          "indexed": false,
          "internalType": "address",
          "name": "forwarder",
          "type": "address"
        }
      ],
      "name": "TrustedForwarderAdded",
      "type": "event"
    },
    {
      "anonymous": false,
      "inputs": [
        {
          "indexed": false,
          "internalType": "address",
          "name": "forwarder",
          "type": "address"
        }
      ],
      "name": "TrustedForwarderRemoved",
      "type": "event"
    },
    {
      "anonymous": false,
      "inputs": [
        {
          "indexed": true,
          "internalType": "address",
          "name": "implementation",
          "type": "address"
        }
      ],
      "name": "Upgraded",
      "type": "event"
    },
    {
      "inputs": [
        {
          "internalType": "uint256",
          "name": "_profileId",
          "type": "uint256"
        },
        {
          "internalType": "address",
          "name": "_delegate",
          "type": "address"
        }
      ],
      "name": "addDelegate",
      "outputs": [],
      "stateMutability": "nonpayable",
      "type": "function"
    },
    {
      "inputs": [
        {
          "internalType": "address",
          "name": "_forwarder",
          "type": "address"
        }
      ],
      "name": "addTrustedForwarder",
      "outputs": [],
      "stateMutability": "nonpayable",
      "type": "function"
    },
    {
      "inputs": [
        {
          "internalType": "address",
          "name": "to",
          "type": "address"
        },
        {
          "internalType": "uint256",
          "name": "tokenId",
          "type": "uint256"
        }
      ],
      "name": "approve",
      "outputs": [],
      "stateMutability": "nonpayable",
      "type": "function"
    },
    {
      "inputs": [
        {
          "internalType": "address",
          "name": "owner",
          "type": "address"
        }
      ],
      "name": "balanceOf",
      "outputs": [
        {
          "internalType": "uint256",
          "name": "",
          "type": "uint256"
        }
      ],
      "stateMutability": "view",
      "type": "function"
    },
    {
      "inputs": [
        {
          "internalType": "uint256",
          "name": "_platformId",
          "type": "uint256"
        },
        {
          "internalType": "address",
          "name": "_userAddress",
          "type": "address"
        },
        {
          "internalType": "string",
          "name": "_handle",
          "type": "string"
        }
      ],
      "name": "freeMint",
      "outputs": [
        {
          "internalType": "uint256",
          "name": "",
          "type": "uint256"
        }
      ],
      "stateMutability": "nonpayable",
      "type": "function"
    },
    {
      "inputs": [
        {
          "internalType": "uint256",
          "name": "tokenId",
          "type": "uint256"
        }
      ],
      "name": "getApproved",
      "outputs": [
        {
          "internalType": "address",
          "name": "",
          "type": "address"
        }
      ],
      "stateMutability": "view",
      "type": "function"
    },
    {
      "inputs": [
        {
          "internalType": "string",
          "name": "_handle",
          "type": "string"
        }
      ],
      "name": "getHandlePrice",
      "outputs": [
        {
          "internalType": "uint256",
          "name": "",
          "type": "uint256"
        }
      ],
      "stateMutability": "view",
      "type": "function"
    },
    {
      "inputs": [
        {
          "internalType": "address",
          "name": "_address",
          "type": "address"
        }
      ],
      "name": "getOriginatorPlatformIdByAddress",
      "outputs": [
        {
          "internalType": "uint256",
          "name": "",
          "type": "uint256"
        }
      ],
      "stateMutability": "view",
      "type": "function"
    },
    {
      "inputs": [
        {
          "internalType": "uint256",
          "name": "",
          "type": "uint256"
        }
      ],
      "name": "hasActivity",
      "outputs": [
        {
          "internalType": "bool",
          "name": "",
          "type": "bool"
        }
      ],
      "stateMutability": "view",
      "type": "function"
    },
    {
      "inputs": [
        {
          "internalType": "address",
          "name": "",
          "type": "address"
        }
      ],
      "name": "ids",
      "outputs": [
        {
          "internalType": "uint256",
          "name": "",
          "type": "uint256"
        }
      ],
      "stateMutability": "view",
      "type": "function"
    },
    {
      "inputs": [
        {
          "internalType": "address",
          "name": "owner",
          "type": "address"
        },
        {
          "internalType": "address",
          "name": "operator",
          "type": "address"
        }
      ],
      "name": "isApprovedForAll",
      "outputs": [
        {
          "internalType": "bool",
          "name": "",
          "type": "bool"
        }
      ],
      "stateMutability": "view",
      "type": "function"
    },
    {
      "inputs": [
        {
          "internalType": "uint256",
          "name": "_profileId",
          "type": "uint256"
        },
        {
          "internalType": "address",
          "name": "_address",
          "type": "address"
        }
      ],
      "name": "isDelegate",
      "outputs": [
        {
          "internalType": "bool",
          "name": "",
          "type": "bool"
        }
      ],
      "stateMutability": "view",
      "type": "function"
    },
    {
      "inputs": [
        {
          "internalType": "uint256",
          "name": "_profileId",
          "type": "uint256"
        },
        {
          "internalType": "address",
          "name": "_address",
          "type": "address"
        }
      ],
      "name": "isOwnerOrDelegate",
      "outputs": [
        {
          "internalType": "bool",
          "name": "",
          "type": "bool"
        }
      ],
      "stateMutability": "view",
      "type": "function"
    },
    {
      "inputs": [
        {
          "internalType": "address",
          "name": "",
          "type": "address"
        }
      ],
      "name": "isServiceContract",
      "outputs": [
        {
          "internalType": "bool",
          "name": "",
          "type": "bool"
        }
      ],
      "stateMutability": "view",
      "type": "function"
    },
    {
      "inputs": [
        {
          "internalType": "address",
          "name": "forwarder",
          "type": "address"
        }
      ],
      "name": "isTrustedForwarder",
      "outputs": [
        {
          "internalType": "bool",
          "name": "",
          "type": "bool"
        }
      ],
      "stateMutability": "view",
      "type": "function"
    },
    {
      "inputs": [
        {
          "internalType": "uint256",
          "name": "_profileId",
          "type": "uint256"
        }
      ],
      "name": "isValid",
      "outputs": [],
      "stateMutability": "view",
      "type": "function"
    },
    {
      "inputs": [
        {
          "internalType": "address",
          "name": "_address",
          "type": "address"
        },
        {
          "internalType": "string",
          "name": "_handle",
          "type": "string"
        },
        {
          "internalType": "bytes32[]",
          "name": "_proof",
          "type": "bytes32[]"
        }
      ],
      "name": "isWhitelisted",
      "outputs": [
        {
          "internalType": "bool",
          "name": "",
          "type": "bool"
        }
      ],
      "stateMutability": "view",
      "type": "function"
    },
    {
      "inputs": [
        {
          "internalType": "uint256",
          "name": "_platformId",
          "type": "uint256"
        },
        {
          "internalType": "string",
          "name": "_handle",
          "type": "string"
        }
      ],
      "name": "mint",
      "outputs": [
        {
          "internalType": "uint256",
          "name": "",
          "type": "uint256"
        }
      ],
      "stateMutability": "payable",
      "type": "function"
    },
    {
      "inputs": [],
      "name": "mintFee",
      "outputs": [
        {
          "internalType": "uint256",
          "name": "",
          "type": "uint256"
        }
      ],
      "stateMutability": "view",
      "type": "function"
    },
    {
      "inputs": [
        {
          "internalType": "address",
          "name": "_address",
          "type": "address"
        },
        {
          "internalType": "uint256",
          "name": "_platformId",
          "type": "uint256"
        },
        {
          "internalType": "string",
          "name": "_handle",
          "type": "string"
        }
      ],
      "name": "mintForAddress",
      "outputs": [
        {
          "internalType": "uint256",
          "name": "",
          "type": "uint256"
        }
      ],
      "stateMutability": "payable",
      "type": "function"
    },
    {
      "inputs": [],
      "name": "mintStatus",
      "outputs": [
        {
          "internalType": "enum TalentLayerIDV2.MintStatus",
          "name": "",
          "type": "uint8"
        }
      ],
      "stateMutability": "view",
      "type": "function"
    },
    {
      "inputs": [],
      "name": "name",
      "outputs": [
        {
          "internalType": "string",
          "name": "",
          "type": "string"
        }
      ],
      "stateMutability": "view",
      "type": "function"
    },
    {
      "inputs": [],
      "name": "owner",
      "outputs": [
        {
          "internalType": "address",
          "name": "",
          "type": "address"
        }
      ],
      "stateMutability": "view",
      "type": "function"
    },
    {
      "inputs": [
        {
          "internalType": "uint256",
          "name": "tokenId",
          "type": "uint256"
        }
      ],
      "name": "ownerOf",
      "outputs": [
        {
          "internalType": "address",
          "name": "",
          "type": "address"
        }
      ],
      "stateMutability": "view",
      "type": "function"
    },
    {
      "inputs": [
        {
          "internalType": "uint256",
          "name": "_tokenId1",
          "type": "uint256"
        },
        {
          "internalType": "uint256",
          "name": "_tokenId2",
          "type": "uint256"
        }
      ],
      "name": "ownersOf",
      "outputs": [
        {
          "internalType": "address",
          "name": "",
          "type": "address"
        },
        {
          "internalType": "address",
          "name": "",
          "type": "address"
        }
      ],
      "stateMutability": "view",
      "type": "function"
    },
    {
      "inputs": [
        {
          "internalType": "uint256",
          "name": "",
          "type": "uint256"
        }
      ],
      "name": "profiles",
      "outputs": [
        {
          "internalType": "uint256",
          "name": "id",
          "type": "uint256"
        },
        {
          "internalType": "string",
          "name": "handle",
          "type": "string"
        },
        {
          "internalType": "uint256",
          "name": "platformId",
          "type": "uint256"
        },
        {
          "internalType": "string",
          "name": "dataUri",
          "type": "string"
        }
      ],
      "stateMutability": "view",
      "type": "function"
    },
    {
      "inputs": [],
      "name": "proxiableUUID",
      "outputs": [
        {
          "internalType": "bytes32",
          "name": "",
          "type": "bytes32"
        }
      ],
      "stateMutability": "view",
      "type": "function"
    },
    {
      "inputs": [
        {
          "internalType": "uint256",
          "name": "_profileId",
          "type": "uint256"
        },
        {
          "internalType": "address",
          "name": "_delegate",
          "type": "address"
        }
      ],
      "name": "removeDelegate",
      "outputs": [],
      "stateMutability": "nonpayable",
      "type": "function"
    },
    {
      "inputs": [
        {
          "internalType": "address",
          "name": "_forwarder",
          "type": "address"
        }
      ],
      "name": "removeTrustedForwarder",
      "outputs": [],
      "stateMutability": "nonpayable",
      "type": "function"
    },
    {
      "inputs": [],
      "name": "renounceOwnership",
      "outputs": [],
      "stateMutability": "nonpayable",
      "type": "function"
    },
    {
      "inputs": [
        {
          "internalType": "address",
          "name": "from",
          "type": "address"
        },
        {
          "internalType": "address",
          "name": "to",
          "type": "address"
        },
        {
          "internalType": "uint256",
          "name": "tokenId",
          "type": "uint256"
        }
      ],
      "name": "safeTransferFrom",
      "outputs": [],
      "stateMutability": "nonpayable",
      "type": "function"
    },
    {
      "inputs": [
        {
          "internalType": "address",
          "name": "from",
          "type": "address"
        },
        {
          "internalType": "address",
          "name": "to",
          "type": "address"
        },
        {
          "internalType": "uint256",
          "name": "tokenId",
          "type": "uint256"
        },
        {
          "internalType": "bytes",
          "name": "data",
          "type": "bytes"
        }
      ],
      "name": "safeTransferFrom",
      "outputs": [],
      "stateMutability": "nonpayable",
      "type": "function"
    },
    {
      "inputs": [
        {
          "internalType": "address",
          "name": "operator",
          "type": "address"
        },
        {
          "internalType": "bool",
          "name": "approved",
          "type": "bool"
        }
      ],
      "name": "setApprovalForAll",
      "outputs": [],
      "stateMutability": "nonpayable",
      "type": "function"
    },
    {
      "inputs": [
        {
          "internalType": "uint256",
          "name": "_profileId",
          "type": "uint256"
        }
      ],
      "name": "setHasActivity",
      "outputs": [],
      "stateMutability": "nonpayable",
      "type": "function"
    },
    {
      "inputs": [
        {
          "internalType": "address",
          "name": "_address",
          "type": "address"
        },
        {
          "internalType": "bool",
          "name": "_isServiceContract",
          "type": "bool"
        }
      ],
      "name": "setIsServiceContract",
      "outputs": [],
      "stateMutability": "nonpayable",
      "type": "function"
    },
    {
      "inputs": [
        {
          "internalType": "bytes32",
          "name": "root",
          "type": "bytes32"
        }
      ],
      "name": "setWhitelistMerkleRoot",
      "outputs": [],
      "stateMutability": "nonpayable",
      "type": "function"
    },
    {
      "inputs": [
        {
          "internalType": "bytes4",
          "name": "interfaceId",
          "type": "bytes4"
        }
      ],
      "name": "supportsInterface",
      "outputs": [
        {
          "internalType": "bool",
          "name": "",
          "type": "bool"
        }
      ],
      "stateMutability": "view",
      "type": "function"
    },
    {
      "inputs": [],
      "name": "symbol",
      "outputs": [
        {
          "internalType": "string",
          "name": "",
          "type": "string"
        }
      ],
      "stateMutability": "view",
      "type": "function"
    },
    {
      "inputs": [
        {
          "internalType": "string",
          "name": "",
          "type": "string"
        }
      ],
      "name": "takenHandles",
      "outputs": [
        {
          "internalType": "bool",
          "name": "",
          "type": "bool"
        }
      ],
      "stateMutability": "view",
      "type": "function"
    },
    {
      "inputs": [],
      "name": "talentLayerPlatformIdContract",
      "outputs": [
        {
          "internalType": "contract ITalentLayerPlatformID",
          "name": "",
          "type": "address"
        }
      ],
      "stateMutability": "view",
      "type": "function"
    },
    {
      "inputs": [
        {
          "internalType": "uint256",
          "name": "tokenId",
          "type": "uint256"
        }
      ],
      "name": "tokenURI",
      "outputs": [
        {
          "internalType": "string",
          "name": "",
          "type": "string"
        }
      ],
      "stateMutability": "view",
      "type": "function"
    },
    {
      "inputs": [],
      "name": "totalSupply",
      "outputs": [
        {
          "internalType": "uint256",
          "name": "",
          "type": "uint256"
        }
      ],
      "stateMutability": "view",
      "type": "function"
    },
    {
      "inputs": [
        {
          "internalType": "address",
          "name": "from",
          "type": "address"
        },
        {
          "internalType": "address",
          "name": "to",
          "type": "address"
        },
        {
          "internalType": "uint256",
          "name": "tokenId",
          "type": "uint256"
        }
      ],
      "name": "transferFrom",
      "outputs": [],
      "stateMutability": "nonpayable",
      "type": "function"
    },
    {
      "inputs": [
        {
          "internalType": "address",
          "name": "newOwner",
          "type": "address"
        }
      ],
      "name": "transferOwnership",
      "outputs": [],
      "stateMutability": "nonpayable",
      "type": "function"
    },
    {
      "inputs": [
        {
          "internalType": "uint256",
          "name": "_mintFee",
          "type": "uint256"
        }
      ],
      "name": "updateMintFee",
      "outputs": [],
      "stateMutability": "nonpayable",
      "type": "function"
    },
    {
      "inputs": [
        {
          "internalType": "enum TalentLayerIDV2.MintStatus",
          "name": "_mintStatus",
          "type": "uint8"
        }
      ],
      "name": "updateMintStatus",
      "outputs": [],
      "stateMutability": "nonpayable",
      "type": "function"
    },
    {
      "inputs": [
        {
          "internalType": "uint256",
          "name": "_profileId",
          "type": "uint256"
        },
        {
          "internalType": "string",
          "name": "_newCid",
          "type": "string"
        }
      ],
      "name": "updateProfileData",
      "outputs": [],
      "stateMutability": "nonpayable",
      "type": "function"
    },
    {
      "inputs": [
        {
          "internalType": "uint256",
          "name": "_shortHandlesMaxPrice",
          "type": "uint256"
        }
      ],
      "name": "updateShortHandlesMaxPrice",
      "outputs": [],
      "stateMutability": "nonpayable",
      "type": "function"
    },
    {
      "inputs": [
        {
          "internalType": "address",
          "name": "newImplementation",
          "type": "address"
        }
      ],
      "name": "upgradeTo",
      "outputs": [],
      "stateMutability": "nonpayable",
      "type": "function"
    },
    {
      "inputs": [
        {
          "internalType": "address",
          "name": "newImplementation",
          "type": "address"
        },
        {
          "internalType": "bytes",
          "name": "data",
          "type": "bytes"
        }
      ],
      "name": "upgradeToAndCall",
      "outputs": [],
      "stateMutability": "payable",
      "type": "function"
    },
    {
      "inputs": [
        {
          "internalType": "uint256",
          "name": "_platformId",
          "type": "uint256"
        },
        {
          "internalType": "string",
          "name": "_handle",
          "type": "string"
        },
        {
          "internalType": "bytes32[]",
          "name": "_proof",
          "type": "bytes32[]"
        }
      ],
      "name": "whitelistMint",
      "outputs": [
        {
          "internalType": "uint256",
          "name": "",
          "type": "uint256"
        }
      ],
      "stateMutability": "payable",
      "type": "function"
    },
    {
      "inputs": [],
      "name": "withdraw",
      "outputs": [],
      "stateMutability": "nonpayable",
      "type": "function"
    }
  ],
  "bytecode": {
    "object": "0x60a0604052306080523480156200001557600080fd5b506200002062000026565b620000e8565b600054610100900460ff1615620000935760405162461bcd60e51b815260206004820152602760248201527f496e697469616c697a61626c653a20636f6e747261637420697320696e697469604482015266616c697a696e6760c81b606482015260840160405180910390fd5b60005460ff9081161015620000e6576000805460ff191660ff9081179091556040519081527f7f26b83ff96e1f2b6a682f133852f6798a09c465da95921460cefb38474024989060200160405180910390a15b565b60805161493d62000120600039600081816111f701528181611237015281816113fc0152818161143c01526114cf015261493d6000f3fe6080604052600436106102ff5760003560e01c80636352211e11610190578063b88d4fde116100dc578063eab5d42611610095578063f2fde38b1161006f578063f2fde38b146109c3578063f577a500146109e3578063f905f15414610a03578063fbdc8dc014610a2357600080fd5b8063eab5d4261461093c578063ebf247f914610983578063f160068f146109a357600080fd5b8063b88d4fde14610850578063bd32fb6614610870578063c36fe3d614610890578063c87b56dd146108c0578063e985e9c5146108e0578063ea17e5a81461092957600080fd5b806384017e52116101495780638da5cb5b116101235780638da5cb5b146107d557806395d89b41146107f35780639da3f8fd14610808578063a22cb4651461083057600080fd5b806384017e521461077557806389c1694c146107955780638ced8ba3146107b557600080fd5b80636352211e146106cd57806370a08231146106ed57806370e703dd1461070d578063715018a61461072d57806377097fc81461074257806383ce205b1461075557600080fd5b806322039f891161024f5780633751d89c116102085780634f1ef286116101e25780634f1ef2861461062457806352d1902d14610637578063572b6c051461064c5780635c4b03481461068557600080fd5b80633751d89c146105cf5780633ccfd60b146105ef57806342842e0e1461060457600080fd5b806322039f89146104fe57806323b872dd1461052f57806326d006681461054f5780632eefaa611461056f5780632fa117e51461058f5780633659cfe6146105af57600080fd5b80631499f9e6116102bc5780631847c06b116102965780631847c06b146104545780631cf6239b146104825780631f67fba6146104a25780632106beec146104c257600080fd5b80631499f9e61461040b57806316afebe51461042c57806318160ddd1461043f57600080fd5b806301ffc9a71461030457806306fdde0314610339578063081812fc1461035b578063095ea7b3146103935780630d283a25146103b557806313966db5146103e6575b600080fd5b34801561031057600080fd5b5061032461031f3660046135ff565b610a63565b60405190151581526020015b60405180910390f35b34801561034557600080fd5b5061034e610ab5565b604051610330919061366c565b34801561036757600080fd5b5061037b61037636600461367f565b610b47565b6040516001600160a01b039091168152602001610330565b34801561039f57600080fd5b506103b36103ae3660046136b4565b610b6e565b005b3480156103c157600080fd5b506103246103d036600461367f565b6101386020526000908152604090205460ff1681565b3480156103f257600080fd5b506103fd6101325481565b604051908152602001610330565b34801561041757600080fd5b5061012e5461037b906001600160a01b031681565b6103fd61043a36600461371f565b610c9a565b34801561044b57600080fd5b506103fd610f55565b34801561046057600080fd5b506103fd61046f3660046137c5565b6101316020526000908152604090205481565b34801561048e57600080fd5b506103b361049d3660046137e0565b610f72565b3480156104ae57600080fd5b506103b36104bd36600461367f565b61103f565b3480156104ce57600080fd5b506103246104dd3660046138c1565b805160208183018101805161012f8252928201919093012091525460ff1681565b34801561050a57600080fd5b506103246105193660046137c5565b6101396020526000908152604090205460ff1681565b34801561053b57600080fd5b506103b361054a3660046138f5565b611084565b34801561055b57600080fd5b506103b361056a3660046137c5565b6110bc565b34801561057b57600080fd5b5061032461058a366004613931565b611118565b34801561059b57600080fd5b506103246105aa3660046137e0565b61119b565b3480156105bb57600080fd5b506103b36105ca3660046137c5565b6111ed565b3480156105db57600080fd5b506103b36105ea3660046137c5565b6112cc565b3480156105fb57600080fd5b506103b3611325565b34801561061057600080fd5b506103b361061f3660046138f5565b6113d7565b6103b3610632366004613a0d565b6113f2565b34801561064357600080fd5b506103fd6114c2565b34801561065857600080fd5b506103246106673660046137c5565b6001600160a01b031660009081526065602052604090205460ff1690565b34801561069157600080fd5b506103fd6106a03660046137c5565b6001600160a01b031660009081526101316020908152604080832054835261013090915290206002015490565b3480156106d957600080fd5b5061037b6106e836600461367f565b611575565b3480156106f957600080fd5b506103fd6107083660046137c5565b6115d5565b34801561071957600080fd5b506103b36107283660046137e0565b61165b565b34801561073957600080fd5b506103b361171d565b6103fd610750366004613a5a565b611731565b34801561076157600080fd5b506103b361077036600461367f565b61191e565b34801561078157600080fd5b506103b361079036600461367f565b6119db565b3480156107a157600080fd5b506103fd6107b0366004613aa5565b611a19565b3480156107c157600080fd5b506103b36107d0366004613afe565b611b5a565b3480156107e157600080fd5b506033546001600160a01b031661037b565b3480156107ff57600080fd5b5061034e611b8e565b34801561081457600080fd5b50610136546108239060ff1681565b6040516103309190613b50565b34801561083c57600080fd5b506103b361084b366004613afe565b611b9d565b34801561085c57600080fd5b506103b361086b366004613b78565b611baf565b34801561087c57600080fd5b506103b361088b36600461367f565b611bee565b34801561089c57600080fd5b506108b06108ab36600461367f565b611bfc565b6040516103309493929190613bdf565b3480156108cc57600080fd5b5061034e6108db36600461367f565b611d36565b3480156108ec57600080fd5b506103246108fb366004613c1b565b6001600160a01b039182166000908152609d6020908152604080832093909416825291909152205460ff1690565b6103fd610937366004613c45565b611d41565b34801561094857600080fd5b506103246109573660046137e0565b6000918252610134602090815260408084206001600160a01b0393909316845291905290205460ff1690565b34801561098f57600080fd5b506103fd61099e366004613c86565b611f00565b3480156109af57600080fd5b506103b36109be366004613cc7565b611f41565b3480156109cf57600080fd5b506103b36109de3660046137c5565b61202b565b3480156109ef57600080fd5b506103b36109fe36600461367f565b6120a1565b348015610a0f57600080fd5b506103b3610a1e366004613cf7565b6120eb565b348015610a2f57600080fd5b50610a43610a3e366004613d18565b612147565b604080516001600160a01b03938416815292909116602083015201610330565b60006001600160e01b031982166380ac58cd60e01b1480610a9457506001600160e01b03198216635b5e139f60e01b145b80610aaf57506301ffc9a760e01b6001600160e01b03198316145b92915050565b606060988054610ac490613d3a565b80601f0160208091040260200160405190810160405280929190818152602001828054610af090613d3a565b8015610b3d5780601f10610b1257610100808354040283529160200191610b3d565b820191906000526020600020905b815481529060010190602001808311610b2057829003601f168201915b5050505050905090565b6000610b5282612168565b506000908152609c60205260409020546001600160a01b031690565b6000610b7982611575565b9050806001600160a01b0316836001600160a01b031603610beb5760405162461bcd60e51b815260206004820152602160248201527f4552433732313a20617070726f76616c20746f2063757272656e74206f776e656044820152603960f91b60648201526084015b60405180910390fd5b806001600160a01b0316610bfd6121c7565b6001600160a01b03161480610c195750610c19816108fb6121c7565b610c8b5760405162461bcd60e51b815260206004820152603d60248201527f4552433732313a20617070726f76652063616c6c6572206973206e6f7420746f60448201527f6b656e206f776e6572206f7220617070726f76656420666f7220616c6c0000006064820152608401610be2565b610c9583836121d1565b505050565b6000610ca46121c7565b858588610cb0846115d5565b15610ccd5760405162461bcd60e51b8152600401610be290613d74565b61012f8383604051610ce0929190613da9565b9081526040519081900360200190205460ff1615610d105760405162461bcd60e51b8152600401610be290613db9565b8015610d735761012e5460405162f577a560e81b8152600481018390526001600160a01b039091169063f577a5009060240160006040518083038186803b158015610d5a57600080fd5b505afa158015610d6e573d6000803e3d6000fd5b505050505b610d7d838361223f565b8888610d898282611f00565b3414610da75760405162461bcd60e51b8152600401610be290613de7565b60016101365460ff166002811115610dc157610dc1613b3a565b14610e0e5760405162461bcd60e51b815260206004820152601d60248201527f57686974656c697374206d696e74206973206e6f7420656e61626c65640000006044820152606401610be2565b6000610e186121c7565b9050610e9c818d8d8080601f016020809104026020016040519081016040528093929190818152602001838380828437600081840152601f19601f820116905080830192505050505050508c8c8080602002602001604051908101604052809392919081815260200183836020028082843760009201919091525061111892505050565b610ee15760405162461bcd60e51b8152602060048201526016602482015275165bdd49dc99481b9bdd081dda1a5d195b1a5cdd195960521b6044820152606401610be2565b610ef481610eef6101335490565b612461565b610f44818d8d8080601f016020809104026020016040519081016040528093929190818152602001838380828437600081840152601f19601f820116905080830192505050505050508f3461247b565b9d9c50505050505050505050505050565b60006001610f636101335490565b610f6d9190613e41565b905090565b610f7a6121c7565b6001600160a01b0316610f8c83611575565b6001600160a01b031614610fd25760405162461bcd60e51b815260206004820152600d60248201526c2737ba103a34329037bbb732b960991b6044820152606401610be2565b6000828152610134602090815260408083206001600160a01b03851680855290835292819020805460ff191660011790558051858152918201929092527f2d678d15460f6ef62d6d85bfaf6a46d9d0d6498a0fd6ecd92d42bc2ab018103991015b60405180910390a15050565b611047612552565b6101378190556040518181527fa7c83a47a9702f7f1fc21a99b3be95dc10f5d00a4bca12cb54ed49b50bce1785906020015b60405180910390a150565b61109561108f6121c7565b826125cb565b6110b15760405162461bcd60e51b8152600401610be290613e54565b610c95838383612649565b6110c4612552565b6001600160a01b038116600081815260656020908152604091829020805460ff1916600117905590519182527f3ef8564460ada92419608d823c014975d98f8104d7d1e68c222967ac6814cd979101611079565b60008061112f856001600160a01b0316601461273f565b84604051602001611141929190613ebd565b6040516020818303038152906040529050611190610135548260405160200161116a9190613ef9565b60405160208183030381529060405280519060200120856128da9092919063ffffffff16565b9150505b9392505050565b6000816001600160a01b03166111b084611575565b6001600160a01b031614806111945750506000918252610134602090815260408084206001600160a01b0393909316845291905290205460ff1690565b6001600160a01b037f00000000000000000000000000000000000000000000000000000000000000001630036112355760405162461bcd60e51b8152600401610be290613f15565b7f00000000000000000000000000000000000000000000000000000000000000006001600160a01b031661127e600080516020614881833981519152546001600160a01b031690565b6001600160a01b0316146112a45760405162461bcd60e51b8152600401610be290613f61565b6112ad816128f0565b604080516000808252602082019092526112c9918391906128f8565b50565b6112d4612552565b6001600160a01b038116600081815260656020908152604091829020805460ff1916905590519182527fd2d636efcad0cea42e170256f4c5d8b1cd81e47b855557edaf44014e6cc4cee69101611079565b61132d612552565b60006113376121c7565b6001600160a01b03164760405160006040518083038185875af1925050503d8060008114611381576040519150601f19603f3d011682016040523d82523d6000602084013e611386565b606091505b50509050806112c95760405162461bcd60e51b815260206004820152601860248201527f4661696c656420746f20776974686472617720457468657200000000000000006044820152606401610be2565b610c9583838360405180602001604052806000815250611baf565b6001600160a01b037f000000000000000000000000000000000000000000000000000000000000000016300361143a5760405162461bcd60e51b8152600401610be290613f15565b7f00000000000000000000000000000000000000000000000000000000000000006001600160a01b0316611483600080516020614881833981519152546001600160a01b031690565b6001600160a01b0316146114a95760405162461bcd60e51b8152600401610be290613f61565b6114b2826128f0565b6114be828260016128f8565b5050565b6000306001600160a01b037f000000000000000000000000000000000000000000000000000000000000000016146115625760405162461bcd60e51b815260206004820152603860248201527f555550535570677261646561626c653a206d757374206e6f742062652063616c60448201527f6c6564207468726f7567682064656c656761746563616c6c00000000000000006064820152608401610be2565b5060008051602061488183398151915290565b6000818152609a60205260408120546001600160a01b031680610aaf5760405162461bcd60e51b8152602060048201526018602482015277115490cdcc8c4e881a5b9d985b1a59081d1bdad95b88125160421b6044820152606401610be2565b60006001600160a01b03821661163f5760405162461bcd60e51b815260206004820152602960248201527f4552433732313a2061646472657373207a65726f206973206e6f7420612076616044820152683634b21037bbb732b960b91b6064820152608401610be2565b506001600160a01b03166000908152609b602052604090205490565b6116636121c7565b6001600160a01b031661167583611575565b6001600160a01b0316146116bb5760405162461bcd60e51b815260206004820152600d60248201526c2737ba103a34329037bbb732b960991b6044820152606401610be2565b6000828152610134602090815260408083206001600160a01b03851680855290835292819020805460ff191690558051858152918201929092527f09f87139523b83583b15f476015dd9a27fae3a03f17202cdf77d063bef5d21c29101611033565b611725612552565b61172f6000612a63565b565b600061173b6121c7565b838386611747846115d5565b156117645760405162461bcd60e51b8152600401610be290613d74565b61012f8383604051611777929190613da9565b9081526040519081900360200190205460ff16156117a75760405162461bcd60e51b8152600401610be290613db9565b801561180a5761012e5460405162f577a560e81b8152600481018390526001600160a01b039091169063f577a5009060240160006040518083038186803b1580156117f157600080fd5b505afa158015611805573d6000803e3d6000fd5b505050505b611814838361223f565b86866118208282611f00565b341461183e5760405162461bcd60e51b8152600401610be290613de7565b60026101365460ff16600281111561185857611858613b3a565b146118a55760405162461bcd60e51b815260206004820152601a60248201527f5075626c6963206d696e74206973206e6f7420656e61626c65640000000000006044820152606401610be2565b60006118af6121c7565b90506118bf81610eef6101335490565b61190f818b8b8080601f016020809104026020016040519081016040528093929190818152602001838380828437600081840152601f19601f820116905080830192505050505050508d3461247b565b9b9a5050505050505050505050565b610139600061192b6121c7565b6001600160a01b0316815260208101919091526040016000205460ff1615156001146119bf5760405162461bcd60e51b815260206004820152603a60248201527f4f6e6c79207365727669636520636f6e7472616374732063616e20736574207760448201527f68657468657220612075736572206861732061637469766974790000000000006064820152608401610be2565b600090815261013860205260409020805460ff19166001179055565b6119e3612552565b6101328190556040518181527f38fbb1c8b109c430f0c030e7ed076cf5611a307773a4e8e365601e8f8bceaec690602001611079565b600083838387611a28846115d5565b15611a455760405162461bcd60e51b8152600401610be290613d74565b61012f8383604051611a58929190613da9565b9081526040519081900360200190205460ff1615611a885760405162461bcd60e51b8152600401610be290613db9565b8015611aeb5761012e5460405162f577a560e81b8152600481018390526001600160a01b039091169063f577a5009060240160006040518083038186803b158015611ad257600080fd5b505afa158015611ae6573d6000803e3d6000fd5b505050505b611af5838361223f565b611afd612552565b611b0b88610eef6101335490565b611b4d8888888080601f01602080910402602001604051908101604052809392919081815260200183838082843760009201829052508f9350915061247b9050565b9998505050505050505050565b611b62612552565b6001600160a01b0391909116600090815261013960205260409020805460ff1916911515919091179055565b606060998054610ac490613d3a565b6114be611ba86121c7565b8383612ab5565b611bc0611bba6121c7565b836125cb565b611bdc5760405162461bcd60e51b8152600401610be290613e54565b611be884848484612b83565b50505050565b611bf6612552565b61013555565b6101306020526000908152604090208054600182018054919291611c1f90613d3a565b80601f0160208091040260200160405190810160405280929190818152602001828054611c4b90613d3a565b8015611c985780601f10611c6d57610100808354040283529160200191611c98565b820191906000526020600020905b815481529060010190602001808311611c7b57829003601f168201915b505050505090806002015490806003018054611cb390613d3a565b80601f0160208091040260200160405190810160405280929190818152602001828054611cdf90613d3a565b8015611d2c5780601f10611d0157610100808354040283529160200191611d2c565b820191906000526020600020905b815481529060010190602001808311611d0f57829003601f168201915b5050505050905084565b6060610aaf82612bb6565b600084838386611d50846115d5565b15611d6d5760405162461bcd60e51b8152600401610be290613d74565b61012f8383604051611d80929190613da9565b9081526040519081900360200190205460ff1615611db05760405162461bcd60e51b8152600401610be290613db9565b8015611e135761012e5460405162f577a560e81b8152600481018390526001600160a01b039091169063f577a5009060240160006040518083038186803b158015611dfa57600080fd5b505afa158015611e0e573d6000803e3d6000fd5b505050505b611e1d838361223f565b8686611e298282611f00565b3414611e475760405162461bcd60e51b8152600401610be290613de7565b60026101365460ff166002811115611e6157611e61613b3a565b14611eae5760405162461bcd60e51b815260206004820152601a60248201527f5075626c6963206d696e74206973206e6f7420656e61626c65640000000000006044820152606401610be2565b611ebc8b610eef6101335490565b61190f8b8a8a8080601f0160208091040260200160405190810160405280939291908181526020018383808284376000920191909152508f925034915061247b9050565b60008160048111611f3457611f16600182613e41565b611f21906002614091565b61013754611f2f919061409d565b611f39565b610132545b949350505050565b81611f4e816105aa6121c7565b611f925760405162461bcd60e51b81526020600482015260156024820152744e6f74206f776e6572206f722064656c656761746560581b6044820152606401610be2565b8151602e14611fd15760405162461bcd60e51b815260206004820152600b60248201526a125b9d985b1a590818da5960aa1b6044820152606401610be2565b600083815261013060205260409020600301611fed8382614105565b50827f613807bd6768f626264e7eb664a65ca99a0d930f8fd8a5b868491a592eb57f728360405161201e919061366c565b60405180910390a2505050565b612033612552565b6001600160a01b0381166120985760405162461bcd60e51b815260206004820152602660248201527f4f776e61626c653a206e6577206f776e657220697320746865207a65726f206160448201526564647265737360d01b6064820152608401610be2565b6112c981612a63565b6000811180156120b357506101335481105b6112c95760405162461bcd60e51b81526020600482015260096024820152681b9bdd081d985b1a5960ba1b6044820152606401610be2565b6120f3612552565b610136805482919060ff1916600183600281111561211357612113613b3a565b02179055507fbe5bfaa294dd4b792e98f2bcf8f597b2ead214107f9bc9e8392d6ec65e8d854f816040516110799190613b50565b60008061215384611575565b61215c84611575565b915091505b9250929050565b6000818152609a60205260409020546001600160a01b03166112c95760405162461bcd60e51b8152602060048201526018602482015277115490cdcc8c4e881a5b9d985b1a59081d1bdad95b88125160421b6044820152606401610be2565b6000610f6d612ce5565b6000818152609c6020526040902080546001600160a01b0319166001600160a01b038416908117909155819061220682611575565b6001600160a01b03167f8c5be1e5ebec7d5bd14f71427d1e84f3dd0314c0f7b2291e5b200ac8c7c3b92560405160405180910390a45050565b600082828080601f016020809104026020016040519081016040528093929190818152602001838380828437600092019190915250508251929350506001821090508061228c5750601f81115b156122aa57604051633eb64ab360e01b815260040160405180910390fd5b6000848460008181106122bf576122bf6141c4565b909101356001600160f81b031916915050602d60f81b8114806122ef5750605f60f81b6001600160f81b03198216145b1561230d57604051632f2c22a760e11b815260040160405180910390fd5b60005b8281101561245957600360fc1b84828151811061232f5761232f6141c4565b01602001516001600160f81b031916108061236d5750603d60f91b84828151811061235c5761235c6141c4565b01602001516001600160f81b031916115b806123c95750603960f81b84828151811061238a5761238a6141c4565b01602001516001600160f81b0319161180156123c95750606160f81b8482815181106123b8576123b86141c4565b01602001516001600160f81b031916105b80156123fa57508381815181106123e2576123e26141c4565b6020910101516001600160f81b031916602d60f81b14155b801561242b5750838181518110612413576124136141c4565b6020910101516001600160f81b031916605f60f81b14155b1561244957604051630bb7f19b60e21b815260040160405180910390fd5b612452816141da565b9050612310565b505050505050565b6114be828260405180602001604052806000815250612d1e565b6000806124886101335490565b905061249961013380546001019055565b60008181526101306020526040902060028101859055600181016124bd8782614105565b50600161012f876040516124d19190613ef9565b9081526040805160209281900383018120805460ff1916941515949094179093556001600160a01b038a1660008181526101319093529120849055907f8475f1ba3b06c1e11c870cbbf9753ca9a8292ea0b203262f682de476dc268f8c906125409085908a908a908a906141f3565b60405180910390a25095945050505050565b61255a6121c7565b6001600160a01b03166125756033546001600160a01b031690565b6001600160a01b03161461172f5760405162461bcd60e51b815260206004820181905260248201527f4f776e61626c653a2063616c6c6572206973206e6f7420746865206f776e65726044820152606401610be2565b6000806125d783611575565b9050806001600160a01b0316846001600160a01b0316148061261e57506001600160a01b038082166000908152609d602090815260408083209388168352929052205460ff165b80611f395750836001600160a01b031661263784610b47565b6001600160a01b031614949350505050565b6000818152610138602052604090205460ff16156126a95760405162461bcd60e51b815260206004820152601d60248201527f546f6b656e207472616e73666572206973206e6f7420616c6c6f7765640000006044820152606401610be2565b6126b2826115d5565b1561270d5760405162461bcd60e51b815260206004820152602560248201527f526563656976657220616c72656164792068617320612054616c656e744c6179604482015264195c88125160da1b6064820152608401610be2565b6001600160a01b0380841660009081526101316020526040808220829055918416815220819055610c95838383612d51565b6060600061274e83600261421f565b612759906002614236565b6001600160401b038111156127705761277061380c565b6040519080825280601f01601f19166020018201604052801561279a576020820181803683370190505b509050600360fc1b816000815181106127b5576127b56141c4565b60200101906001600160f81b031916908160001a905350600f60fb1b816001815181106127e4576127e46141c4565b60200101906001600160f81b031916908160001a905350600061280884600261421f565b612813906001614236565b90505b600181111561288b576f181899199a1a9b1b9c1cb0b131b232b360811b85600f1660108110612847576128476141c4565b1a60f81b82828151811061285d5761285d6141c4565b60200101906001600160f81b031916908160001a90535060049490941c9361288481614249565b9050612816565b5083156111945760405162461bcd60e51b815260206004820181905260248201527f537472696e67733a20686578206c656e67746820696e73756666696369656e746044820152606401610be2565b6000826128e78584612ec2565b14949350505050565b6112c9612552565b7f4910fdfa16fed3260ed0e7147f7cc6da11a60208b5b9406d12a635614ffd91435460ff161561292b57610c9583612f0f565b826001600160a01b03166352d1902d6040518163ffffffff1660e01b8152600401602060405180830381865afa925050508015612985575060408051601f3d908101601f1916820190925261298291810190614260565b60015b6129e85760405162461bcd60e51b815260206004820152602e60248201527f45524331393637557067726164653a206e657720696d706c656d656e7461746960448201526d6f6e206973206e6f74205555505360901b6064820152608401610be2565b6000805160206148818339815191528114612a575760405162461bcd60e51b815260206004820152602960248201527f45524331393637557067726164653a20756e737570706f727465642070726f786044820152681a58589b195555525160ba1b6064820152608401610be2565b50610c95838383612fab565b603380546001600160a01b038381166001600160a01b0319831681179093556040519116919082907f8be0079c531659141344cd1fd0a4f28419497f9722a3daafe3b4186f6b6457e090600090a35050565b816001600160a01b0316836001600160a01b031603612b165760405162461bcd60e51b815260206004820152601960248201527f4552433732313a20617070726f766520746f2063616c6c6572000000000000006044820152606401610be2565b6001600160a01b038381166000818152609d6020908152604080832094871680845294825291829020805460ff191686151590811790915591519182527f17307eab39ab6107e8899845ad3d59bd9653f200f220920489ca2b5937696c31910160405180910390a3505050565b612b8e848484612649565b612b9a84848484612fd0565b611be85760405162461bcd60e51b8152600401610be290614279565b600081815261013060209081526040808320905160609392612bdc9260010191016142cb565b60405160208183030381529060405290506000601461013060008681526020019081526020016000206001018054612c1390613d3a565b90501115612c3b5760405180604001604052806002815260200161034360f41b815250612c57565b60405180604001604052806002815260200161036360f41b8152505b90506000612c858284604051602001612c7192919061434c565b6040516020818303038152906040526130d5565b604051602001612c9591906146c4565b6040516020818303038152906040529050612cbc8382604051602001612c71929190614709565b604051602001612ccc919061479c565b6040516020818303038152906040529350505050919050565b600060143610801590612d0757503360009081526065602052604090205460ff165b15612d19575060131936013560601c90565b503390565b612d288383613227565b612d356000848484612fd0565b610c955760405162461bcd60e51b8152600401610be290614279565b826001600160a01b0316612d6482611575565b6001600160a01b031614612d8a5760405162461bcd60e51b8152600401610be2906147e1565b6001600160a01b038216612dec5760405162461bcd60e51b8152602060048201526024808201527f4552433732313a207472616e7366657220746f20746865207a65726f206164646044820152637265737360e01b6064820152608401610be2565b612df983838360016133c0565b826001600160a01b0316612e0c82611575565b6001600160a01b031614612e325760405162461bcd60e51b8152600401610be2906147e1565b6000818152609c6020908152604080832080546001600160a01b03199081169091556001600160a01b03878116808652609b8552838620805460001901905590871680865283862080546001019055868652609a90945282852080549092168417909155905184937fddf252ad1be2c89b69c2b068fc378daa952ba7f163c4a11628f55a4df523b3ef91a4505050565b600081815b8451811015612f0757612ef382868381518110612ee657612ee66141c4565b6020026020010151613448565b915080612eff816141da565b915050612ec7565b509392505050565b6001600160a01b0381163b612f7c5760405162461bcd60e51b815260206004820152602d60248201527f455243313936373a206e657720696d706c656d656e746174696f6e206973206e60448201526c1bdd08184818dbdb9d1c9858dd609a1b6064820152608401610be2565b60008051602061488183398151915280546001600160a01b0319166001600160a01b0392909216919091179055565b612fb483613477565b600082511180612fc15750805b15610c9557611be883836134b7565b60006001600160a01b0384163b156130cd57836001600160a01b031663150b7a02612ff96121c7565b8786866040518563ffffffff1660e01b815260040161301b9493929190614826565b6020604051808303816000875af1925050508015613056575060408051601f3d908101601f1916820190925261305391810190614863565b60015b6130b3573d808015613084576040519150601f19603f3d011682016040523d82523d6000602084013e613089565b606091505b5080516000036130ab5760405162461bcd60e51b8152600401610be290614279565b805181602001fd5b6001600160e01b031916630a85bd0160e11b149050611f39565b506001611f39565b606081516000036130f457505060408051602081019091526000815290565b60006040518060600160405280604081526020016148a160409139905060006003845160026131239190614236565b61312d919061409d565b61313890600461421f565b6001600160401b0381111561314f5761314f61380c565b6040519080825280601f01601f191660200182016040528015613179576020820181803683370190505b509050600182016020820185865187015b808210156131e5576003820191508151603f8160121c168501518453600184019350603f81600c1c168501518453600184019350603f8160061c168501518453600184019350603f811685015184535060018301925061318a565b505060038651066001811461320157600281146132145761321c565b603d6001830353603d600283035361321c565b603d60018303535b509195945050505050565b6001600160a01b03821661327d5760405162461bcd60e51b815260206004820181905260248201527f4552433732313a206d696e7420746f20746865207a65726f20616464726573736044820152606401610be2565b6000818152609a60205260409020546001600160a01b0316156132e25760405162461bcd60e51b815260206004820152601c60248201527f4552433732313a20746f6b656e20616c7265616479206d696e746564000000006044820152606401610be2565b6132f06000838360016133c0565b6000818152609a60205260409020546001600160a01b0316156133555760405162461bcd60e51b815260206004820152601c60248201527f4552433732313a20746f6b656e20616c7265616479206d696e746564000000006044820152606401610be2565b6001600160a01b0382166000818152609b6020908152604080832080546001019055848352609a90915280822080546001600160a01b0319168417905551839291907fddf252ad1be2c89b69c2b068fc378daa952ba7f163c4a11628f55a4df523b3ef908290a45050565b6001811115611be8576001600160a01b03841615613406576001600160a01b0384166000908152609b602052604081208054839290613400908490613e41565b90915550505b6001600160a01b03831615611be8576001600160a01b0383166000908152609b60205260408120805483929061343d908490614236565b909155505050505050565b6000818310613464576000828152602084905260409020611194565b6000838152602083905260409020611194565b61348081612f0f565b6040516001600160a01b038216907fbc7cd75a20ee27fd9adebab32041f755214dbc6bffa90cc0225b39da2e5c2d3b90600090a250565b60606001600160a01b0383163b61351f5760405162461bcd60e51b815260206004820152602660248201527f416464726573733a2064656c65676174652063616c6c20746f206e6f6e2d636f6044820152651b9d1c9858dd60d21b6064820152608401610be2565b600080846001600160a01b03168460405161353a9190613ef9565b600060405180830381855af49150503d8060008114613575576040519150601f19603f3d011682016040523d82523d6000602084013e61357a565b606091505b50915091506135a282826040518060600160405280602781526020016148e1602791396135ab565b95945050505050565b606083156135ba575081611194565b61119483838151156135cf5781518083602001fd5b8060405162461bcd60e51b8152600401610be2919061366c565b6001600160e01b0319811681146112c957600080fd5b60006020828403121561361157600080fd5b8135611194816135e9565b60005b8381101561363757818101518382015260200161361f565b50506000910152565b6000815180845261365881602086016020860161361c565b601f01601f19169290920160200192915050565b6020815260006111946020830184613640565b60006020828403121561369157600080fd5b5035919050565b80356001600160a01b03811681146136af57600080fd5b919050565b600080604083850312156136c757600080fd5b6136d083613698565b946020939093013593505050565b60008083601f8401126136f057600080fd5b5081356001600160401b0381111561370757600080fd5b60208301915083602082850101111561216157600080fd5b60008060008060006060868803121561373757600080fd5b8535945060208601356001600160401b038082111561375557600080fd5b61376189838a016136de565b9096509450604088013591508082111561377a57600080fd5b818801915088601f83011261378e57600080fd5b81358181111561379d57600080fd5b8960208260051b85010111156137b257600080fd5b9699959850939650602001949392505050565b6000602082840312156137d757600080fd5b61119482613698565b600080604083850312156137f357600080fd5b8235915061380360208401613698565b90509250929050565b634e487b7160e01b600052604160045260246000fd5b604051601f8201601f191681016001600160401b038111828210171561384a5761384a61380c565b604052919050565b600082601f83011261386357600080fd5b81356001600160401b0381111561387c5761387c61380c565b61388f601f8201601f1916602001613822565b8181528460208386010111156138a457600080fd5b816020850160208301376000918101602001919091529392505050565b6000602082840312156138d357600080fd5b81356001600160401b038111156138e957600080fd5b611f3984828501613852565b60008060006060848603121561390a57600080fd5b61391384613698565b925061392160208501613698565b9150604084013590509250925092565b60008060006060848603121561394657600080fd5b61394f84613698565b92506020808501356001600160401b038082111561396c57600080fd5b61397888838901613852565b9450604087013591508082111561398e57600080fd5b818701915087601f8301126139a257600080fd5b8135818111156139b4576139b461380c565b8060051b91506139c5848301613822565b818152918301840191848101908a8411156139df57600080fd5b938501935b838510156139fd578435825293850193908501906139e4565b8096505050505050509250925092565b60008060408385031215613a2057600080fd5b613a2983613698565b915060208301356001600160401b03811115613a4457600080fd5b613a5085828601613852565b9150509250929050565b600080600060408486031215613a6f57600080fd5b8335925060208401356001600160401b03811115613a8c57600080fd5b613a98868287016136de565b9497909650939450505050565b60008060008060608587031215613abb57600080fd5b84359350613acb60208601613698565b925060408501356001600160401b03811115613ae657600080fd5b613af2878288016136de565b95989497509550505050565b60008060408385031215613b1157600080fd5b613b1a83613698565b915060208301358015158114613b2f57600080fd5b809150509250929050565b634e487b7160e01b600052602160045260246000fd5b6020810160038310613b7257634e487b7160e01b600052602160045260246000fd5b91905290565b60008060008060808587031215613b8e57600080fd5b613b9785613698565b9350613ba560208601613698565b92506040850135915060608501356001600160401b03811115613bc757600080fd5b613bd387828801613852565b91505092959194509250565b848152608060208201526000613bf86080830186613640565b8460408401528281036060840152613c108185613640565b979650505050505050565b60008060408385031215613c2e57600080fd5b613c3783613698565b915061380360208401613698565b60008060008060608587031215613c5b57600080fd5b613c6485613698565b93506020850135925060408501356001600160401b03811115613ae657600080fd5b60008060208385031215613c9957600080fd5b82356001600160401b03811115613caf57600080fd5b613cbb858286016136de565b90969095509350505050565b60008060408385031215613cda57600080fd5b8235915060208301356001600160401b03811115613a4457600080fd5b600060208284031215613d0957600080fd5b81356003811061119457600080fd5b60008060408385031215613d2b57600080fd5b50508035926020909101359150565b600181811c90821680613d4e57607f821691505b602082108103613d6e57634e487b7160e01b600052602260045260246000fd5b50919050565b6020808252818101527f596f7520616c7265616479206861766520612054616c656e744c617965724944604082015260600190565b8183823760009101908152919050565b6020808252601490820152732430b73236329030b63932b0b23c903a30b5b2b760611b604082015260600190565b60208082526024908201527f496e636f727265637420616d6f756e74206f662045544820666f72206d696e746040820152632066656560e01b606082015260800190565b634e487b7160e01b600052601160045260246000fd5b81810381811115610aaf57610aaf613e2b565b6020808252602d908201527f4552433732313a2063616c6c6572206973206e6f7420746f6b656e206f776e6560408201526c1c881bdc88185c1c1c9bdd9959609a1b606082015260800190565b60008151613eb381856020860161361c565b9290920192915050565b60008351613ecf81846020880161361c565b603b60f81b9083019081528351613eed81600184016020880161361c565b01600101949350505050565b60008251613f0b81846020870161361c565b9190910192915050565b6020808252602c908201527f46756e6374696f6e206d7573742062652063616c6c6564207468726f7567682060408201526b19195b1959d85d1958d85b1b60a21b606082015260800190565b6020808252602c908201527f46756e6374696f6e206d7573742062652063616c6c6564207468726f7567682060408201526b6163746976652070726f787960a01b606082015260800190565b600181815b80851115613fe8578160001904821115613fce57613fce613e2b565b80851615613fdb57918102915b93841c9390800290613fb2565b509250929050565b600082613fff57506001610aaf565b8161400c57506000610aaf565b8160018114614022576002811461402c57614048565b6001915050610aaf565b60ff84111561403d5761403d613e2b565b50506001821b610aaf565b5060208310610133831016604e8410600b841016171561406b575081810a610aaf565b6140758383613fad565b806000190482111561408957614089613e2b565b029392505050565b60006111948383613ff0565b6000826140ba57634e487b7160e01b600052601260045260246000fd5b500490565b601f821115610c9557600081815260208120601f850160051c810160208610156140e65750805b601f850160051c820191505b81811015612459578281556001016140f2565b81516001600160401b0381111561411e5761411e61380c565b6141328161412c8454613d3a565b846140bf565b602080601f831160018114614167576000841561414f5750858301515b600019600386901b1c1916600185901b178555612459565b600085815260208120601f198616915b8281101561419657888601518255948401946001909101908401614177565b50858210156141b45787850151600019600388901b60f8161c191681555b5050505050600190811b01905550565b634e487b7160e01b600052603260045260246000fd5b6000600182016141ec576141ec613e2b565b5060010190565b84815260806020820152600061420c6080830186613640565b6040830194909452506060015292915050565b8082028115828204841417610aaf57610aaf613e2b565b80820180821115610aaf57610aaf613e2b565b60008161425857614258613e2b565b506000190190565b60006020828403121561427257600080fd5b5051919050565b60208082526032908201527f4552433732313a207472616e7366657220746f206e6f6e20455243373231526560408201527131b2b4bb32b91034b6b83632b6b2b73a32b960711b606082015260800190565b60008083546142d981613d3a565b600182811680156142f1576001811461430657614335565b60ff1984168752821515830287019450614335565b8760005260208060002060005b8581101561432c5781548a820152908401908201614313565b50505082870194505b5050620b9d1b60ea1b835250506003019392505050565b7f3c73766720786d6c6e733d22687474703a2f2f7777772e77332e6f72672f323081527f30302f737667222077696474683d2237323022206865696768743d223732302260208201527f3e3c726563742077696474683d223130302522206865696768743d223130302560408201527f222f3e3c73766720786d6c6e733d22687474703a2f2f7777772e77332e6f726760608201527f2f323030302f737667222077696474683d2231353022206865696768743d223160808201527f3530222076657273696f6e3d22312e32222076696577426f783d222d3230302060a08201527f2d353020313030302031303030223e3c706174682066696c6c3d22234646464660c08201527f46462220643d224d3236342e35203139302e3563302d31332e382031312e322d60e08201527f32352032352d3235483536386331332e3820302032352031312e3220323520326101008201527f357634393063302031332e382d31312e322032352d3235203235483238392e356101208201527f632d31332e3820302d32352d31312e322d32352d32357a222f3e3c70617468206101408201527f66696c6c3d22234646464646462220643d224d3236352036323463302d31332e6101608201527f382031312e322d32352032352d3235683534336331332e3820302032352031316101808201527f2e322032352032357635362e3563302031332e382d31312e322032352d3235206101a08201527f323548323930632d31332e3820302d32352d31312e322d32352d32357a222f3e6101c08201527f3c706174682066696c6c3d22234646464646462220643d224d30203139302e356101e08201527f63302d31332e382031312e322d32352032352d3235683534336331332e3820306102008201527f2032352031312e322032352032355632343763302031332e382d31312e3220326102208201527f352d3235203235483235632d31332e3820302d32352d31312e322d32352d32356102408201527f7a222f3e3c2f7376673e3c7465787420783d2233302220793d223637302220736102608201526b03a3cb6329e913337b73a1d160a51b6102808201526000611f396146ab6146a561467c61028c860188613ea1565b7f70782073616e732d73657269663b66696c6c3a23666666223e00000000000000815260190190565b85613ea1565b6c1e17ba32bc3a1f1e17b9bb339f60991b8152600d0190565b7f646174613a696d6167652f7376672b786d6c3b6261736536342c0000000000008152600082516146fc81601a85016020870161361c565b91909101601a0192915050565b683d913730b6b2911d1160b91b8152825160009061472e81600985016020880161361c565b6b1116101134b6b0b3b2911d1160a11b600991840191820152835161475a81601584016020880161361c565b7f222c20226465736372697074696f6e223a202254616c656e744c617965722049601592909101918201526244227d60e81b6035820152603801949350505050565b7f646174613a6170706c69636174696f6e2f6a736f6e3b6261736536342c0000008152600082516147d481601d85016020870161361c565b91909101601d0192915050565b60208082526025908201527f4552433732313a207472616e736665722066726f6d20696e636f72726563742060408201526437bbb732b960d91b606082015260800190565b6001600160a01b038581168252841660208201526040810183905260806060820181905260009061485990830184613640565b9695505050505050565b60006020828403121561487557600080fd5b8151611194816135e956fe360894a13ba1a3210667c828492db98dca3e2076cc3735a920a3ca505d382bbc4142434445464748494a4b4c4d4e4f505152535455565758595a6162636465666768696a6b6c6d6e6f707172737475767778797a303132333435363738392b2f416464726573733a206c6f772d6c6576656c2064656c65676174652063616c6c206661696c6564a26469706673582212203403f60f3f4b2a51861098f58149a00e28d29de11b262eaf56ede17195edba3e64736f6c63430008130033",
    "linkReferences": {}
  },
  "methodIdentifiers": {
    "addDelegate(uint256,address)": "1cf6239b",
    "addTrustedForwarder(address)": "26d00668",
    "approve(address,uint256)": "095ea7b3",
    "balanceOf(address)": "70a08231",
    "freeMint(uint256,address,string)": "89c1694c",
    "getApproved(uint256)": "081812fc",
    "getHandlePrice(string)": "ebf247f9",
    "getOriginatorPlatformIdByAddress(address)": "5c4b0348",
    "hasActivity(uint256)": "0d283a25",
    "ids(address)": "1847c06b",
    "isApprovedForAll(address,address)": "e985e9c5",
    "isDelegate(uint256,address)": "eab5d426",
    "isOwnerOrDelegate(uint256,address)": "2fa117e5",
    "isServiceContract(address)": "22039f89",
    "isTrustedForwarder(address)": "572b6c05",
    "isValid(uint256)": "f577a500",
    "isWhitelisted(address,string,bytes32[])": "2eefaa61",
    "mint(uint256,string)": "77097fc8",
    "mintFee()": "13966db5",
    "mintForAddress(address,uint256,string)": "ea17e5a8",
    "mintStatus()": "9da3f8fd",
    "name()": "06fdde03",
    "owner()": "8da5cb5b",
    "ownerOf(uint256)": "6352211e",
    "ownersOf(uint256,uint256)": "fbdc8dc0",
    "profiles(uint256)": "c36fe3d6",
    "proxiableUUID()": "52d1902d",
    "removeDelegate(uint256,address)": "70e703dd",
    "removeTrustedForwarder(address)": "3751d89c",
    "renounceOwnership()": "715018a6",
    "safeTransferFrom(address,address,uint256)": "42842e0e",
    "safeTransferFrom(address,address,uint256,bytes)": "b88d4fde",
    "setApprovalForAll(address,bool)": "a22cb465",
    "setHasActivity(uint256)": "83ce205b",
    "setIsServiceContract(address,bool)": "8ced8ba3",
    "setWhitelistMerkleRoot(bytes32)": "bd32fb66",
    "supportsInterface(bytes4)": "01ffc9a7",
    "symbol()": "95d89b41",
    "takenHandles(string)": "2106beec",
    "talentLayerPlatformIdContract()": "1499f9e6",
    "tokenURI(uint256)": "c87b56dd",
    "totalSupply()": "18160ddd",
    "transferFrom(address,address,uint256)": "23b872dd",
    "transferOwnership(address)": "f2fde38b",
    "updateMintFee(uint256)": "84017e52",
    "updateMintStatus(uint8)": "f905f154",
    "updateProfileData(uint256,string)": "f160068f",
    "updateShortHandlesMaxPrice(uint256)": "1f67fba6",
    "upgradeTo(address)": "3659cfe6",
    "upgradeToAndCall(address,bytes)": "4f1ef286",
    "whitelistMint(uint256,string,bytes32[])": "16afebe5",
    "withdraw()": "3ccfd60b"
  },
  "id": 19
}