{
  "abi": [
    {
      "inputs": [
        {
          "components": [
            {
              "internalType": "address",
              "name": "from",
              "type": "address"
            },
            {
              "internalType": "address",
              "name": "to",
              "type": "address"
            },
            {
              "internalType": "uint256",
              "name": "value",
              "type": "uint256"
            },
            {
              "internalType": "uint256",
              "name": "gas",
              "type": "uint256"
            },
            {
              "internalType": "uint256",
              "name": "nonce",
              "type": "uint256"
            },
            {
              "internalType": "bytes",
              "name": "data",
              "type": "bytes"
            },
            {
              "internalType": "uint256",
              "name": "validUntilTime",
              "type": "uint256"
            }
          ],
          "internalType": "struct MockForwarder.ForwardRequest",
          "name": "req",
          "type": "tuple"
        }
      ],
      "name": "execute",
      "outputs": [
        {
          "internalType": "bool",
          "name": "success",
          "type": "bool"
        },
        {
          "internalType": "bytes",
          "name": "ret",
          "type": "bytes"
        }
      ],
      "stateMutability": "payable",
      "type": "function"
    }
  ],
  "bytecode": {
    "object": "0x608060405234801561001057600080fd5b506102ae806100206000396000f3fe60806040526004361061001e5760003560e01c80632665941814610023575b600080fd5b61003661003136600461011d565b61004d565b604051610044929190610183565b60405180910390f35b600060608161005f60a08501856101bf565b61006c602087018761020d565b60405160200161007e93929190610236565b60408051601f198184030181529181529091506100a09085016020860161020d565b6001600160a01b031684606001358560400135836040516100c1919061025c565b600060405180830381858888f193505050503d80600081146100ff576040519150601f19603f3d011682016040523d82523d6000602084013e610104565b606091505b5090935091508261011757815160208301fd5b50915091565b60006020828403121561012f57600080fd5b813567ffffffffffffffff81111561014657600080fd5b820160e0818503121561015857600080fd5b9392505050565b60005b8381101561017a578181015183820152602001610162565b50506000910152565b821515815260406020820152600082518060408401526101aa81606085016020870161015f565b601f01601f1916919091016060019392505050565b6000808335601e198436030181126101d657600080fd5b83018035915067ffffffffffffffff8211156101f157600080fd5b60200191503681900382131561020657600080fd5b9250929050565b60006020828403121561021f57600080fd5b81356001600160a01b038116811461015857600080fd5b8284823760609190911b6bffffffffffffffffffffffff19169101908152601401919050565b6000825161026e81846020870161015f565b919091019291505056fea264697066735822122089c0d0c687b352145d5f5c3cc904509b01671e6cf4ba9112ca337daf3e2a90f364736f6c63430008130033",
    "linkReferences": {}
  },
  "methodIdentifiers": {
    "execute((address,address,uint256,uint256,uint256,bytes,uint256))": "26659418"
  },
  "id": 17
}